{
  "contractName": "CourseMarketplace",
  "abi": [
    {
      "inputs": [],
      "stateMutability": "nonpayable",
      "type": "constructor"
    },
    {
      "inputs": [],
      "name": "CourseHasOwner",
      "type": "error"
    },
    {
      "inputs": [],
      "name": "CourseIsNotCreated",
      "type": "error"
    },
    {
      "inputs": [],
      "name": "InvalidState",
      "type": "error"
    },
    {
      "inputs": [],
      "name": "OnlyOwner",
      "type": "error"
    },
    {
      "inputs": [],
      "name": "SenderIsNotCourseOwner",
      "type": "error"
    },
    {
      "inputs": [],
      "name": "isStopped",
      "outputs": [
        {
          "internalType": "bool",
          "name": "",
          "type": "bool"
        }
      ],
      "stateMutability": "view",
      "type": "function"
    },
    {
      "inputs": [],
      "name": "stopContract",
      "outputs": [],
      "stateMutability": "nonpayable",
      "type": "function"
    },
    {
      "inputs": [],
      "name": "resumeContract",
      "outputs": [],
      "stateMutability": "nonpayable",
      "type": "function"
    },
    {
      "inputs": [
        {
          "internalType": "bytes16",
          "name": "courseId",
          "type": "bytes16"
        },
        {
          "internalType": "bytes32",
          "name": "proof",
          "type": "bytes32"
        }
      ],
      "name": "purchaseCourse",
      "outputs": [],
      "stateMutability": "payable",
      "type": "function"
    },
    {
      "inputs": [
        {
          "internalType": "bytes32",
          "name": "courseHash",
          "type": "bytes32"
        }
      ],
      "name": "repurchaseCourse",
      "outputs": [],
      "stateMutability": "payable",
      "type": "function"
    },
    {
      "inputs": [
        {
          "internalType": "bytes32",
          "name": "courseHash",
          "type": "bytes32"
        }
      ],
      "name": "activateCourse",
      "outputs": [],
      "stateMutability": "nonpayable",
      "type": "function"
    },
    {
      "inputs": [
        {
          "internalType": "bytes32",
          "name": "courseHash",
          "type": "bytes32"
        }
      ],
      "name": "deactivateCourse",
      "outputs": [],
      "stateMutability": "nonpayable",
      "type": "function"
    },
    {
      "inputs": [
        {
          "internalType": "address",
          "name": "newOwner",
          "type": "address"
        }
      ],
      "name": "transferOwnership",
      "outputs": [],
      "stateMutability": "nonpayable",
      "type": "function"
    },
    {
      "inputs": [],
      "name": "getCourseCount",
      "outputs": [
        {
          "internalType": "uint256",
          "name": "",
          "type": "uint256"
        }
      ],
      "stateMutability": "view",
      "type": "function"
    },
    {
      "inputs": [
        {
          "internalType": "uint256",
          "name": "index",
          "type": "uint256"
        }
      ],
      "name": "getCourseHashAtIndex",
      "outputs": [
        {
          "internalType": "bytes32",
          "name": "",
          "type": "bytes32"
        }
      ],
      "stateMutability": "view",
      "type": "function"
    },
    {
      "inputs": [
        {
          "internalType": "bytes32",
          "name": "courseHash",
          "type": "bytes32"
        }
      ],
      "name": "getCourseByHash",
      "outputs": [
        {
          "components": [
            {
              "internalType": "uint256",
              "name": "id",
              "type": "uint256"
            },
            {
              "internalType": "uint256",
              "name": "price",
              "type": "uint256"
            },
            {
              "internalType": "bytes32",
              "name": "proof",
              "type": "bytes32"
            },
            {
              "internalType": "address",
              "name": "owner",
              "type": "address"
            },
            {
              "internalType": "enum CourseMarketplace.State",
              "name": "state",
              "type": "uint8"
            }
          ],
          "internalType": "struct CourseMarketplace.Course",
          "name": "",
          "type": "tuple"
        }
      ],
      "stateMutability": "view",
      "type": "function"
    },
    {
      "inputs": [],
      "name": "getContractOwner",
      "outputs": [
        {
          "internalType": "address",
          "name": "",
          "type": "address"
        }
      ],
      "stateMutability": "view",
      "type": "function"
    }
  ],
  "bytecode": "0x608060405260008060006101000a81548160ff02191690831515021790555034801561002a57600080fd5b5061003a3361003f60201b60201c565b610083565b80600460006101000a81548173ffffffffffffffffffffffffffffffffffffffff021916908373ffffffffffffffffffffffffffffffffffffffff16021790555050565b611378806100926000396000f3fe6080604052600436106100a75760003560e01c80636d11290b116100645780636d11290b1461019b578063935d7e6d146101d857806396cfda0614610201578063c4bc5da51461022c578063d76821cb14610243578063f2fde38b1461025f576100a7565b806312253a6c146100ac57806339262572146100c35780633f683b6a146100ec578063442890d5146101175780636136e1eb1461014257806362e4e6ac1461015e575b600080fd5b3480156100b857600080fd5b506100c1610288565b005b3480156100cf57600080fd5b506100ea60048036038101906100e59190610de5565b610310565b005b3480156100f857600080fd5b5061010161048a565b60405161010e9190610e2d565b60405180910390f35b34801561012357600080fd5b5061012c61049b565b6040516101399190610e89565b60405180910390f35b61015c60048036038101906101579190610de5565b6104c5565b005b34801561016a57600080fd5b5061018560048036038101906101809190610de5565b61061a565b6040516101929190610fba565b60405180910390f35b3480156101a757600080fd5b506101c260048036038101906101bd9190611001565b6106f6565b6040516101cf919061103d565b60405180910390f35b3480156101e457600080fd5b506101ff60048036038101906101fa9190610de5565b610713565b005b34801561020d57600080fd5b5061021661096c565b6040516102239190611067565b60405180910390f35b34801561023857600080fd5b50610241610976565b005b61025d600480360381019061025891906110da565b6109fe565b005b34801561026b57600080fd5b5061028660048036038101906102819190611146565b610bb7565b005b61029061049b565b73ffffffffffffffffffffffffffffffffffffffff163373ffffffffffffffffffffffffffffffffffffffff16146102f4576040517f5fc483c500000000000000000000000000000000000000000000000000000000815260040160405180910390fd5b60016000806101000a81548160ff021916908315150217905550565b61031861049b565b73ffffffffffffffffffffffffffffffffffffffff163373ffffffffffffffffffffffffffffffffffffffff161461037c576040517f5fc483c500000000000000000000000000000000000000000000000000000000815260040160405180910390fd5b60008054906101000a900460ff161561039457600080fd5b61039d81610c2f565b6103d3576040517f4db0c48300000000000000000000000000000000000000000000000000000000815260040160405180910390fd5b6000600160008381526020019081526020016000209050600060028111156103fe576103fd610edb565b5b8160030160149054906101000a900460ff16600281111561042257610421610edb565b5b14610459576040517fbaf3f0f700000000000000000000000000000000000000000000000000000000815260040160405180910390fd5b60018160030160146101000a81548160ff0219169083600281111561048157610480610edb565b5b02179055505050565b60008054906101000a900460ff1681565b6000600460009054906101000a900473ffffffffffffffffffffffffffffffffffffffff16905090565b60008054906101000a900460ff16156104dd57600080fd5b6104e681610c2f565b61051c576040517f4db0c48300000000000000000000000000000000000000000000000000000000815260040160405180910390fd5b61052581610c9e565b61055b576040517fcce31cc400000000000000000000000000000000000000000000000000000000815260040160405180910390fd5b600060016000838152602001908152602001600020905060028081111561058557610584610edb565b5b8160030160149054906101000a900460ff1660028111156105a9576105a8610edb565b5b146105e0576040517fbaf3f0f700000000000000000000000000000000000000000000000000000000815260040160405180910390fd5b60008160030160146101000a81548160ff0219169083600281111561060857610607610edb565b5b02179055503481600101819055505050565b610622610d50565b600160008381526020019081526020016000206040518060a00160405290816000820154815260200160018201548152602001600282015481526020016003820160009054906101000a900473ffffffffffffffffffffffffffffffffffffffff1673ffffffffffffffffffffffffffffffffffffffff1673ffffffffffffffffffffffffffffffffffffffff1681526020016003820160149054906101000a900460ff1660028111156106d9576106d8610edb565b5b60028111156106eb576106ea610edb565b5b815250509050919050565b600060026000838152602001908152602001600020549050919050565b61071b61049b565b73ffffffffffffffffffffffffffffffffffffffff163373ffffffffffffffffffffffffffffffffffffffff161461077f576040517f5fc483c500000000000000000000000000000000000000000000000000000000815260040160405180910390fd5b60008054906101000a900460ff161561079757600080fd5b6107a081610c2f565b6107d6576040517f4db0c48300000000000000000000000000000000000000000000000000000000815260040160405180910390fd5b60006001600083815260200190815260200160002090506000600281111561080157610800610edb565b5b8160030160149054906101000a900460ff16600281111561082557610824610edb565b5b1461085c576040517fbaf3f0f700000000000000000000000000000000000000000000000000000000815260040160405180910390fd5b60008160030160009054906101000a900473ffffffffffffffffffffffffffffffffffffffff1673ffffffffffffffffffffffffffffffffffffffff1682600101546040516108aa906111a4565b60006040518083038185875af1925050503d80600081146108e7576040519150601f19603f3d011682016040523d82523d6000602084013e6108ec565b606091505b5050905080610930576040517f08c379a000000000000000000000000000000000000000000000000000000000815260040161092790611216565b60405180910390fd5b60028260030160146101000a81548160ff0219169083600281111561095857610957610edb565b5b021790555060008260010181905550505050565b6000600354905090565b61097e61049b565b73ffffffffffffffffffffffffffffffffffffffff163373ffffffffffffffffffffffffffffffffffffffff16146109e2576040517f5fc483c500000000000000000000000000000000000000000000000000000000815260040160405180910390fd5b60008060006101000a81548160ff021916908315150217905550565b60008054906101000a900460ff1615610a1657600080fd5b60008233604051602001610a2b92919061129f565b604051602081830303815290604052805190602001209050610a4c81610c9e565b15610a83576040517fb0fc2d9700000000000000000000000000000000000000000000000000000000815260040160405180910390fd5b600060036000815480929190610a98906112fa565b9190505590508160026000838152602001908152602001600020819055506040518060a001604052808281526020013481526020018481526020013373ffffffffffffffffffffffffffffffffffffffff16815260200160006002811115610b0357610b02610edb565b5b8152506001600084815260200190815260200160002060008201518160000155602082015181600101556040820151816002015560608201518160030160006101000a81548173ffffffffffffffffffffffffffffffffffffffff021916908373ffffffffffffffffffffffffffffffffffffffff16021790555060808201518160030160146101000a81548160ff02191690836002811115610ba957610ba8610edb565b5b021790555090505050505050565b610bbf61049b565b73ffffffffffffffffffffffffffffffffffffffff163373ffffffffffffffffffffffffffffffffffffffff1614610c23576040517f5fc483c500000000000000000000000000000000000000000000000000000000815260040160405180910390fd5b610c2c81610d0c565b50565b60008073ffffffffffffffffffffffffffffffffffffffff166001600084815260200190815260200160002060030160009054906101000a900473ffffffffffffffffffffffffffffffffffffffff1673ffffffffffffffffffffffffffffffffffffffff1614159050919050565b60003373ffffffffffffffffffffffffffffffffffffffff166001600084815260200190815260200160002060030160009054906101000a900473ffffffffffffffffffffffffffffffffffffffff1673ffffffffffffffffffffffffffffffffffffffff16149050919050565b80600460006101000a81548173ffffffffffffffffffffffffffffffffffffffff021916908373ffffffffffffffffffffffffffffffffffffffff16021790555050565b6040518060a00160405280600081526020016000815260200160008019168152602001600073ffffffffffffffffffffffffffffffffffffffff16815260200160006002811115610da457610da3610edb565b5b81525090565b600080fd5b6000819050919050565b610dc281610daf565b8114610dcd57600080fd5b50565b600081359050610ddf81610db9565b92915050565b600060208284031215610dfb57610dfa610daa565b5b6000610e0984828501610dd0565b91505092915050565b60008115159050919050565b610e2781610e12565b82525050565b6000602082019050610e426000830184610e1e565b92915050565b600073ffffffffffffffffffffffffffffffffffffffff82169050919050565b6000610e7382610e48565b9050919050565b610e8381610e68565b82525050565b6000602082019050610e9e6000830184610e7a565b92915050565b6000819050919050565b610eb781610ea4565b82525050565b610ec681610daf565b82525050565b610ed581610e68565b82525050565b7f4e487b7100000000000000000000000000000000000000000000000000000000600052602160045260246000fd5b60038110610f1b57610f1a610edb565b5b50565b6000819050610f2c82610f0a565b919050565b6000610f3c82610f1e565b9050919050565b610f4c81610f31565b82525050565b60a082016000820151610f686000850182610eae565b506020820151610f7b6020850182610eae565b506040820151610f8e6040850182610ebd565b506060820151610fa16060850182610ecc565b506080820151610fb46080850182610f43565b50505050565b600060a082019050610fcf6000830184610f52565b92915050565b610fde81610ea4565b8114610fe957600080fd5b50565b600081359050610ffb81610fd5565b92915050565b60006020828403121561101757611016610daa565b5b600061102584828501610fec565b91505092915050565b61103781610daf565b82525050565b6000602082019050611052600083018461102e565b92915050565b61106181610ea4565b82525050565b600060208201905061107c6000830184611058565b92915050565b60007fffffffffffffffffffffffffffffffff0000000000000000000000000000000082169050919050565b6110b781611082565b81146110c257600080fd5b50565b6000813590506110d4816110ae565b92915050565b600080604083850312156110f1576110f0610daa565b5b60006110ff858286016110c5565b925050602061111085828601610dd0565b9150509250929050565b61112381610e68565b811461112e57600080fd5b50565b6000813590506111408161111a565b92915050565b60006020828403121561115c5761115b610daa565b5b600061116a84828501611131565b91505092915050565b600081905092915050565b50565b600061118e600083611173565b91506111998261117e565b600082019050919050565b60006111af82611181565b9150819050919050565b600082825260208201905092915050565b7f5472616e73666572206661696c65642100000000000000000000000000000000600082015250565b60006112006010836111b9565b915061120b826111ca565b602082019050919050565b6000602082019050818103600083015261122f816111f3565b9050919050565b6000819050919050565b61125161124c82611082565b611236565b82525050565b60008160601b9050919050565b600061126f82611257565b9050919050565b600061128182611264565b9050919050565b61129961129482610e68565b611276565b82525050565b60006112ab8285611240565b6010820191506112bb8284611288565b6014820191508190509392505050565b7f4e487b7100000000000000000000000000000000000000000000000000000000600052601160045260246000fd5b600061130582610ea4565b91507fffffffffffffffffffffffffffffffffffffffffffffffffffffffffffffffff8203611337576113366112cb565b5b60018201905091905056fea26469706673582212205e287029f5e1a07aeef4a40e276f0a68db6b0667c351f3407909b66f7c6baea164736f6c63430008100033",
  "immutableReferences": {},
  "source": "// SPDX-License-Identifier: MIT\r\npragma solidity >=0.4.22 <0.9.0;\r\n\r\ncontract CourseMarketplace {\r\n    enum State {\r\n        Purchased,\r\n        Activated,\r\n        Deactivated\r\n    }\r\n\r\n    struct Course {\r\n        uint256 id; // 32\r\n        uint256 price; // 32\r\n        bytes32 proof; // 32\r\n        address owner; // 20\r\n        State state; // 1\r\n    }\r\n\r\n    bool public isStopped = false;\r\n\r\n    // mapping of courseHash to Course data\r\n    mapping(bytes32 => Course) private ownedCourses;\r\n\r\n    // mapping of courseID to courseHash\r\n    mapping(uint256 => bytes32) private ownedCourseHash;\r\n\r\n    // number of all courses + id of the course\r\n    uint256 private totalOwnedCourses;\r\n\r\n    address payable private owner;\r\n\r\n    constructor() {\r\n        setContractOwner(msg.sender);\r\n    }\r\n\r\n    /// Course has invalid state!\r\n    error InvalidState();\r\n\r\n    /// Course is not created!\r\n    error CourseIsNotCreated();\r\n\r\n    /// Course has already a Owner!\r\n    error CourseHasOwner();\r\n\r\n    /// Sender is not course owner!\r\n    error SenderIsNotCourseOwner();\r\n\r\n    /// Only owner has an access!\r\n    error OnlyOwner();\r\n\r\n    modifier onlyOwner() {\r\n        if (msg.sender != getContractOwner()) {\r\n            revert OnlyOwner();\r\n        }\r\n        _;\r\n    }\r\n\r\n    modifier onlyWhenNotStopped() {\r\n        require(!isStopped);\r\n        _;\r\n    }\r\n\r\n    function stopContract() external onlyOwner {\r\n        isStopped = true;\r\n    }\r\n\r\n    function resumeContract() external onlyOwner {\r\n        isStopped = false;\r\n    }\r\n\r\n    function purchaseCourse(\r\n        bytes16 courseId, // 0x00000000000000000000000000003130\r\n        bytes32 proof // 0x0000000000000000000000000000313000000000000000000000000000003130\r\n    ) external payable onlyWhenNotStopped {\r\n        bytes32 courseHash = keccak256(abi.encodePacked(courseId, msg.sender));\r\n\r\n        if (hasCourseOwnership(courseHash)) {\r\n            revert CourseHasOwner();\r\n        }\r\n\r\n        uint256 id = totalOwnedCourses++;\r\n\r\n        ownedCourseHash[id] = courseHash;\r\n        ownedCourses[courseHash] = Course({\r\n            id: id,\r\n            price: msg.value,\r\n            proof: proof,\r\n            owner: msg.sender,\r\n            state: State.Purchased\r\n        });\r\n    }\r\n\r\n    function repurchaseCourse(bytes32 courseHash)\r\n        external\r\n        payable\r\n        onlyWhenNotStopped\r\n    {\r\n        if (!isCourseCreated(courseHash)) {\r\n            revert CourseIsNotCreated();\r\n        }\r\n\r\n        if (!hasCourseOwnership(courseHash)) {\r\n            revert SenderIsNotCourseOwner();\r\n        }\r\n\r\n        Course storage course = ownedCourses[courseHash];\r\n\r\n        if (course.state != State.Deactivated) {\r\n            revert InvalidState();\r\n        }\r\n\r\n        course.state = State.Purchased;\r\n        course.price = msg.value;\r\n    }\r\n\r\n    function activateCourse(bytes32 courseHash)\r\n        external\r\n        onlyOwner\r\n        onlyWhenNotStopped\r\n    {\r\n        if (!isCourseCreated(courseHash)) {\r\n            revert CourseIsNotCreated();\r\n        }\r\n\r\n        Course storage course = ownedCourses[courseHash];\r\n\r\n        if (course.state != State.Purchased) {\r\n            revert InvalidState();\r\n        }\r\n\r\n        course.state = State.Activated;\r\n    }\r\n\r\n    function deactivateCourse(bytes32 courseHash)\r\n        external\r\n        onlyOwner\r\n        onlyWhenNotStopped\r\n    {\r\n        if (!isCourseCreated(courseHash)) {\r\n            revert CourseIsNotCreated();\r\n        }\r\n\r\n        Course storage course = ownedCourses[courseHash];\r\n\r\n        if (course.state != State.Purchased) {\r\n            revert InvalidState();\r\n        }\r\n\r\n        (bool success, ) = course.owner.call{value: course.price}(\"\");\r\n        require(success, \"Transfer failed!\");\r\n\r\n        course.state = State.Deactivated;\r\n        course.price = 0;\r\n    }\r\n\r\n    function transferOwnership(address newOwner) external onlyOwner {\r\n        setContractOwner(newOwner);\r\n    }\r\n\r\n    function getCourseCount() external view returns (uint256) {\r\n        return totalOwnedCourses;\r\n    }\r\n\r\n    function getCourseHashAtIndex(uint256 index)\r\n        external\r\n        view\r\n        returns (bytes32)\r\n    {\r\n        return ownedCourseHash[index];\r\n    }\r\n\r\n    function getCourseByHash(bytes32 courseHash)\r\n        external\r\n        view\r\n        returns (Course memory)\r\n    {\r\n        return ownedCourses[courseHash];\r\n    }\r\n\r\n    function getContractOwner() public view returns (address) {\r\n        return owner;\r\n    }\r\n\r\n    function setContractOwner(address newOwner) private {\r\n        owner = payable(newOwner);\r\n    }\r\n\r\n    function isCourseCreated(bytes32 courseHash) private view returns (bool) {\r\n        return\r\n            ownedCourses[courseHash].owner !=\r\n            0x0000000000000000000000000000000000000000;\r\n    }\r\n\r\n    function hasCourseOwnership(bytes32 courseHash)\r\n        private\r\n        view\r\n        returns (bool)\r\n    {\r\n        return ownedCourses[courseHash].owner == msg.sender;\r\n    }\r\n}\r\n",
  "sourcePath": "C:\\my\\build\\git\\demo-bank\\solidity\\solidity-marketplace\\contracts\\CourseMarketplace.sol",
  "compiler": {
    "name": "solc",
    "version": "0.8.16+commit.07a7930e.Emscripten.clang"
  },
  "schemaVersion": "3.4.9",
  "updatedAt": "2022-09-24T12:18:34.381Z",
  "devdoc": {
    "kind": "dev",
    "methods": {},
    "version": 1
  },
  "userdoc": {
    "errors": {
      "CourseHasOwner()": [
        {
          "notice": "Course has already a Owner!"
        }
      ],
      "CourseIsNotCreated()": [
        {
          "notice": "Course is not created!"
        }
      ],
      "InvalidState()": [
        {
          "notice": "Course has invalid state!"
        }
      ],
      "OnlyOwner()": [
        {
          "notice": "Only owner has an access!"
        }
      ],
      "SenderIsNotCourseOwner()": [
        {
          "notice": "Sender is not course owner!"
        }
      ]
    },
    "kind": "user",
    "methods": {},
    "version": 1
  }
}