{
  "contractName": "CourseMarketplace",
  "abi": [
    {
      "inputs": [],
      "stateMutability": "nonpayable",
      "type": "constructor"
    },
    {
      "inputs": [],
      "name": "CourseHasOwner",
      "type": "error"
    },
    {
      "inputs": [],
      "name": "OnlyOwner",
      "type": "error"
    },
    {
      "inputs": [
        {
          "internalType": "bytes16",
          "name": "courseId",
          "type": "bytes16"
        },
        {
          "internalType": "bytes32",
          "name": "proof",
          "type": "bytes32"
        }
      ],
      "name": "purchaseCourse",
      "outputs": [],
      "stateMutability": "payable",
      "type": "function"
    },
    {
      "inputs": [
        {
          "internalType": "address",
          "name": "newOwner",
          "type": "address"
        }
      ],
      "name": "transferOwnership",
      "outputs": [],
      "stateMutability": "nonpayable",
      "type": "function"
    },
    {
      "inputs": [],
      "name": "getCourseCount",
      "outputs": [
        {
          "internalType": "uint256",
          "name": "",
          "type": "uint256"
        }
      ],
      "stateMutability": "view",
      "type": "function"
    },
    {
      "inputs": [
        {
          "internalType": "uint256",
          "name": "index",
          "type": "uint256"
        }
      ],
      "name": "getCourseHashAtIndex",
      "outputs": [
        {
          "internalType": "bytes32",
          "name": "",
          "type": "bytes32"
        }
      ],
      "stateMutability": "view",
      "type": "function"
    },
    {
      "inputs": [
        {
          "internalType": "bytes32",
          "name": "courseHash",
          "type": "bytes32"
        }
      ],
      "name": "getCourseByHash",
      "outputs": [
        {
          "components": [
            {
              "internalType": "uint256",
              "name": "id",
              "type": "uint256"
            },
            {
              "internalType": "uint256",
              "name": "price",
              "type": "uint256"
            },
            {
              "internalType": "bytes32",
              "name": "proof",
              "type": "bytes32"
            },
            {
              "internalType": "address",
              "name": "owner",
              "type": "address"
            },
            {
              "internalType": "enum CourseMarketplace.State",
              "name": "state",
              "type": "uint8"
            }
          ],
          "internalType": "struct CourseMarketplace.Course",
          "name": "",
          "type": "tuple"
        }
      ],
      "stateMutability": "view",
      "type": "function"
    },
    {
      "inputs": [],
      "name": "getContractOwner",
      "outputs": [
        {
          "internalType": "address",
          "name": "",
          "type": "address"
        }
      ],
      "stateMutability": "view",
      "type": "function"
    }
  ],
  "bytecode": "0x608060405234801561001057600080fd5b506100203361002560201b60201c565b610069565b80600360006101000a81548173ffffffffffffffffffffffffffffffffffffffff021916908373ffffffffffffffffffffffffffffffffffffffff16021790555050565b610a94806100786000396000f3fe6080604052600436106100555760003560e01c8063442890d51461005a57806362e4e6ac146100855780636d11290b146100c257806396cfda06146100ff578063d76821cb1461012a578063f2fde38b14610146575b600080fd5b34801561006657600080fd5b5061006f61016f565b60405161007c9190610804565b60405180910390f35b34801561009157600080fd5b506100ac60048036038101906100a7919061067f565b610199565b6040516100b9919061083a565b60405180910390f35b3480156100ce57600080fd5b506100e960048036038101906100e491906106ac565b610274565b6040516100f6919061081f565b60405180910390f35b34801561010b57600080fd5b50610114610291565b6040516101219190610855565b60405180910390f35b610144600480360381019061013f919061063f565b61029b565b005b34801561015257600080fd5b5061016d60048036038101906101689190610612565b61043b565b005b6000600360009054906101000a900473ffffffffffffffffffffffffffffffffffffffff16905090565b6101a1610564565b6000808381526020019081526020016000206040518060a00160405290816000820154815260200160018201548152602001600282015481526020016003820160009054906101000a900473ffffffffffffffffffffffffffffffffffffffff1673ffffffffffffffffffffffffffffffffffffffff1673ffffffffffffffffffffffffffffffffffffffff1681526020016003820160149054906101000a900460ff166002811115610257576102566109ad565b5b6002811115610269576102686109ad565b5b815250509050919050565b600060016000838152602001908152602001600020549050919050565b6000600254905090565b600082336040516020016102b09291906107d8565b6040516020818303038152906040528051906020012090506102d1816104b3565b15610308576040517fb0fc2d9700000000000000000000000000000000000000000000000000000000815260040160405180910390fd5b60006002600081548092919061031d90610907565b9190505590508160016000838152602001908152602001600020819055506040518060a001604052808281526020013481526020018481526020013373ffffffffffffffffffffffffffffffffffffffff16815260200160006002811115610388576103876109ad565b5b81525060008084815260200190815260200160002060008201518160000155602082015181600101556040820151816002015560608201518160030160006101000a81548173ffffffffffffffffffffffffffffffffffffffff021916908373ffffffffffffffffffffffffffffffffffffffff16021790555060808201518160030160146101000a81548160ff0219169083600281111561042d5761042c6109ad565b5b021790555090505050505050565b61044361016f565b73ffffffffffffffffffffffffffffffffffffffff163373ffffffffffffffffffffffffffffffffffffffff16146104a7576040517f5fc483c500000000000000000000000000000000000000000000000000000000815260040160405180910390fd5b6104b081610520565b50565b60003373ffffffffffffffffffffffffffffffffffffffff1660008084815260200190815260200160002060030160009054906101000a900473ffffffffffffffffffffffffffffffffffffffff1673ffffffffffffffffffffffffffffffffffffffff16149050919050565b80600360006101000a81548173ffffffffffffffffffffffffffffffffffffffff021916908373ffffffffffffffffffffffffffffffffffffffff16021790555050565b6040518060a00160405280600081526020016000815260200160008019168152602001600073ffffffffffffffffffffffffffffffffffffffff168152602001600060028111156105b8576105b76109ad565b5b81525090565b6000813590506105cd81610a02565b92915050565b6000813590506105e281610a19565b92915050565b6000813590506105f781610a30565b92915050565b60008135905061060c81610a47565b92915050565b600060208284031215610628576106276109dc565b5b6000610636848285016105be565b91505092915050565b60008060408385031215610656576106556109dc565b5b6000610664858286016105d3565b9250506020610675858286016105e8565b9150509250929050565b600060208284031215610695576106946109dc565b5b60006106a3848285016105e8565b91505092915050565b6000602082840312156106c2576106c16109dc565b5b60006106d0848285016105fd565b91505092915050565b6106e281610870565b82525050565b6106f181610870565b82525050565b61070861070382610870565b610950565b82525050565b61071f61071a82610882565b610962565b82525050565b61072e816108ae565b82525050565b61073d816108ae565b82525050565b61074c816108f5565b82525050565b60a08201600082015161076860008501826107ba565b50602082015161077b60208501826107ba565b50604082015161078e6040850182610725565b5060608201516107a160608501826106d9565b5060808201516107b46080850182610743565b50505050565b6107c3816108eb565b82525050565b6107d2816108eb565b82525050565b60006107e4828561070e565b6010820191506107f482846106f7565b6014820191508190509392505050565b600060208201905061081960008301846106e8565b92915050565b60006020820190506108346000830184610734565b92915050565b600060a08201905061084f6000830184610752565b92915050565b600060208201905061086a60008301846107c9565b92915050565b600061087b826108cb565b9050919050565b60007fffffffffffffffffffffffffffffffff0000000000000000000000000000000082169050919050565b6000819050919050565b60008190506108c6826109ee565b919050565b600073ffffffffffffffffffffffffffffffffffffffff82169050919050565b6000819050919050565b6000610900826108b8565b9050919050565b6000610912826108eb565b91507fffffffffffffffffffffffffffffffffffffffffffffffffffffffffffffffff8214156109455761094461097e565b5b600182019050919050565b600061095b8261096c565b9050919050565b6000819050919050565b6000610977826109e1565b9050919050565b7f4e487b7100000000000000000000000000000000000000000000000000000000600052601160045260246000fd5b7f4e487b7100000000000000000000000000000000000000000000000000000000600052602160045260246000fd5b600080fd5b60008160601b9050919050565b600381106109ff576109fe6109ad565b5b50565b610a0b81610870565b8114610a1657600080fd5b50565b610a2281610882565b8114610a2d57600080fd5b50565b610a39816108ae565b8114610a4457600080fd5b50565b610a50816108eb565b8114610a5b57600080fd5b5056fea2646970667358221220cc8bf3003b6dac6105c91b580359eb7dd694f87ee58b73d490b2ceccdfd745d964736f6c63430008070033",
  "immutableReferences": {},
  "source": "// SPDX-License-Identifier: MIT\r\npragma solidity >=0.4.22 <0.9.0;\r\n\r\ncontract CourseMarketplace {\r\n    enum State {\r\n        Purchased,\r\n        Activated,\r\n        Deactivated\r\n    }\r\n\r\n    struct Course {\r\n        uint256 id; // 32\r\n        uint256 price; // 32\r\n        bytes32 proof; // 32\r\n        address owner; // 20\r\n        State state; // 1\r\n    }\r\n\r\n    // mapping of courseHash to Course data\r\n    mapping(bytes32 => Course) private ownedCourses;\r\n\r\n    // mapping of courseID to courseHash\r\n    mapping(uint256 => bytes32) private ownedCourseHash;\r\n\r\n    // number of all courses + id of the course\r\n    uint256 private totalOwnedCourses;\r\n\r\n    address payable private owner;\r\n\r\n    constructor() {\r\n        setContractOwner(msg.sender);\r\n    }\r\n\r\n    /// Course has already a Owner!\r\n    error CourseHasOwner();\r\n\r\n    /// Only owner has an access!\r\n    error OnlyOwner();\r\n\r\n    modifier onlyOwner() {\r\n        if (msg.sender != getContractOwner()) {\r\n            revert OnlyOwner();\r\n        }\r\n        _;\r\n    }\r\n\r\n    function purchaseCourse(\r\n        bytes16 courseId, // 0x00000000000000000000000000003130\r\n        bytes32 proof // 0x0000000000000000000000000000313000000000000000000000000000003130\r\n    ) external payable {\r\n        bytes32 courseHash = keccak256(abi.encodePacked(courseId, msg.sender));\r\n\r\n        if (hasCourseOwnership(courseHash)) {\r\n            revert CourseHasOwner();\r\n        }\r\n\r\n        uint256 id = totalOwnedCourses++;\r\n\r\n        ownedCourseHash[id] = courseHash;\r\n        ownedCourses[courseHash] = Course({\r\n            id: id,\r\n            price: msg.value,\r\n            proof: proof,\r\n            owner: msg.sender,\r\n            state: State.Purchased\r\n        });\r\n    }\r\n\r\n    function transferOwnership(address newOwner) external onlyOwner {\r\n        setContractOwner(newOwner);\r\n    }\r\n\r\n    function getCourseCount() external view returns (uint256) {\r\n        return totalOwnedCourses;\r\n    }\r\n\r\n    function getCourseHashAtIndex(uint256 index)\r\n        external\r\n        view\r\n        returns (bytes32)\r\n    {\r\n        return ownedCourseHash[index];\r\n    }\r\n\r\n    function getCourseByHash(bytes32 courseHash)\r\n        external\r\n        view\r\n        returns (Course memory)\r\n    {\r\n        return ownedCourses[courseHash];\r\n    }\r\n\r\n    function getContractOwner() public view returns (address) {\r\n        return owner;\r\n    }\r\n\r\n    function setContractOwner(address newOwner) private {\r\n        owner = payable(newOwner);\r\n    }\r\n\r\n    function hasCourseOwnership(bytes32 courseHash)\r\n        private\r\n        view\r\n        returns (bool)\r\n    {\r\n        return ownedCourses[courseHash].owner == msg.sender;\r\n    }\r\n}\r\n",
  "sourcePath": "C:/my/build/git/demo-bank/solidity/solidity-marketplace/contracts/CourseMarketplace.sol",
  "compiler": {
    "name": "solc",
    "version": "0.8.7+commit.e28d00a7.Emscripten.clang"
  },
  "schemaVersion": "3.4.1",
  "updatedAt": "2022-08-06T15:34:50.501Z",
  "devdoc": {
    "kind": "dev",
    "methods": {},
    "version": 1
  },
  "userdoc": {
    "errors": {
      "CourseHasOwner()": [
        {
          "notice": "Course has already a Owner!"
        }
      ],
      "OnlyOwner()": [
        {
          "notice": "Only owner has an access!"
        }
      ]
    },
    "kind": "user",
    "methods": {},
    "version": 1
  }
}